{
  "contractName": "EncodeCoin",
  "abi": [
    {
      "inputs": [],
      "stateMutability": "nonpayable",
      "type": "constructor"
    },
    {
      "anonymous": false,
      "inputs": [
        {
          "indexed": true,
          "internalType": "address",
          "name": "owner",
          "type": "address"
        },
        {
          "indexed": true,
          "internalType": "address",
          "name": "spender",
          "type": "address"
        },
        {
          "indexed": false,
          "internalType": "uint256",
          "name": "value",
          "type": "uint256"
        }
      ],
      "name": "Approval",
      "type": "event"
    },
    {
      "anonymous": false,
      "inputs": [
        {
          "indexed": true,
          "internalType": "address",
          "name": "previousOwner",
          "type": "address"
        },
        {
          "indexed": true,
          "internalType": "address",
          "name": "newOwner",
          "type": "address"
        }
      ],
      "name": "OwnershipTransferred",
      "type": "event"
    },
    {
      "anonymous": false,
      "inputs": [
        {
          "indexed": true,
          "internalType": "address",
          "name": "from",
          "type": "address"
        },
        {
          "indexed": true,
          "internalType": "address",
          "name": "to",
          "type": "address"
        },
        {
          "indexed": false,
          "internalType": "uint256",
          "name": "value",
          "type": "uint256"
        }
      ],
      "name": "Transfer",
      "type": "event"
    },
    {
      "inputs": [
        {
          "internalType": "address",
          "name": "owner",
          "type": "address"
        },
        {
          "internalType": "address",
          "name": "spender",
          "type": "address"
        }
      ],
      "name": "allowance",
      "outputs": [
        {
          "internalType": "uint256",
          "name": "",
          "type": "uint256"
        }
      ],
      "stateMutability": "view",
      "type": "function",
      "constant": true
    },
    {
      "inputs": [
        {
          "internalType": "address",
          "name": "spender",
          "type": "address"
        },
        {
          "internalType": "uint256",
          "name": "amount",
          "type": "uint256"
        }
      ],
      "name": "approve",
      "outputs": [
        {
          "internalType": "bool",
          "name": "",
          "type": "bool"
        }
      ],
      "stateMutability": "nonpayable",
      "type": "function"
    },
    {
      "inputs": [
        {
          "internalType": "address",
          "name": "account",
          "type": "address"
        }
      ],
      "name": "balanceOf",
      "outputs": [
        {
          "internalType": "uint256",
          "name": "",
          "type": "uint256"
        }
      ],
      "stateMutability": "view",
      "type": "function",
      "constant": true
    },
    {
      "inputs": [],
      "name": "decimals",
      "outputs": [
        {
          "internalType": "uint8",
          "name": "",
          "type": "uint8"
        }
      ],
      "stateMutability": "view",
      "type": "function",
      "constant": true
    },
    {
      "inputs": [
        {
          "internalType": "address",
          "name": "spender",
          "type": "address"
        },
        {
          "internalType": "uint256",
          "name": "subtractedValue",
          "type": "uint256"
        }
      ],
      "name": "decreaseAllowance",
      "outputs": [
        {
          "internalType": "bool",
          "name": "",
          "type": "bool"
        }
      ],
      "stateMutability": "nonpayable",
      "type": "function"
    },
    {
      "inputs": [
        {
          "internalType": "address",
          "name": "spender",
          "type": "address"
        },
        {
          "internalType": "uint256",
          "name": "addedValue",
          "type": "uint256"
        }
      ],
      "name": "increaseAllowance",
      "outputs": [
        {
          "internalType": "bool",
          "name": "",
          "type": "bool"
        }
      ],
      "stateMutability": "nonpayable",
      "type": "function"
    },
    {
      "inputs": [],
      "name": "name",
      "outputs": [
        {
          "internalType": "string",
          "name": "",
          "type": "string"
        }
      ],
      "stateMutability": "view",
      "type": "function",
      "constant": true
    },
    {
      "inputs": [],
      "name": "owner",
      "outputs": [
        {
          "internalType": "address",
          "name": "",
          "type": "address"
        }
      ],
      "stateMutability": "view",
      "type": "function",
      "constant": true
    },
    {
      "inputs": [],
      "name": "renounceOwnership",
      "outputs": [],
      "stateMutability": "nonpayable",
      "type": "function"
    },
    {
      "inputs": [],
      "name": "symbol",
      "outputs": [
        {
          "internalType": "string",
          "name": "",
          "type": "string"
        }
      ],
      "stateMutability": "view",
      "type": "function",
      "constant": true
    },
    {
      "inputs": [],
      "name": "tokenVotes",
      "outputs": [
        {
          "internalType": "int256",
          "name": "",
          "type": "int256"
        }
      ],
      "stateMutability": "view",
      "type": "function",
      "constant": true
    },
    {
      "inputs": [],
      "name": "totalSupply",
      "outputs": [
        {
          "internalType": "uint256",
          "name": "",
          "type": "uint256"
        }
      ],
      "stateMutability": "view",
      "type": "function",
      "constant": true
    },
    {
      "inputs": [
        {
          "internalType": "address",
          "name": "recipient",
          "type": "address"
        },
        {
          "internalType": "uint256",
          "name": "amount",
          "type": "uint256"
        }
      ],
      "name": "transfer",
      "outputs": [
        {
          "internalType": "bool",
          "name": "",
          "type": "bool"
        }
      ],
      "stateMutability": "nonpayable",
      "type": "function"
    },
    {
      "inputs": [
        {
          "internalType": "address",
          "name": "sender",
          "type": "address"
        },
        {
          "internalType": "address",
          "name": "recipient",
          "type": "address"
        },
        {
          "internalType": "uint256",
          "name": "amount",
          "type": "uint256"
        }
      ],
      "name": "transferFrom",
      "outputs": [
        {
          "internalType": "bool",
          "name": "",
          "type": "bool"
        }
      ],
      "stateMutability": "nonpayable",
      "type": "function"
    },
    {
      "inputs": [
        {
          "internalType": "address",
          "name": "newOwner",
          "type": "address"
        }
      ],
      "name": "transferOwnership",
      "outputs": [],
      "stateMutability": "nonpayable",
      "type": "function"
    },
    {
      "inputs": [
        {
          "internalType": "address",
          "name": "_recipient",
          "type": "address"
        },
        {
          "internalType": "uint256",
          "name": "_amount",
          "type": "uint256"
        }
      ],
      "name": "mintToken",
      "outputs": [],
      "stateMutability": "nonpayable",
      "type": "function"
    },
    {
      "inputs": [],
      "name": "vote",
      "outputs": [],
      "stateMutability": "nonpayable",
      "type": "function"
    },
    {
      "inputs": [
        {
          "internalType": "address",
          "name": "_recipient",
          "type": "address"
        },
        {
          "internalType": "uint256",
          "name": "_amount",
          "type": "uint256"
        }
      ],
      "name": "burnToken",
      "outputs": [],
      "stateMutability": "nonpayable",
      "type": "function"
    }
  ],
  "bytecode": "0x608060405260006006553480156200001657600080fd5b506040518060400160405280600681526020017f456e636f646500000000000000000000000000000000000000000000000000008152506040518060400160405280600381526020017f454e43000000000000000000000000000000000000000000000000000000000081525081600390805190602001906200009b92919062000176565b508060049080519060200190620000b492919062000176565b5050506000620000c96200016e60201b60201c565b905080600560006101000a81548173ffffffffffffffffffffffffffffffffffffffff021916908373ffffffffffffffffffffffffffffffffffffffff1602179055508073ffffffffffffffffffffffffffffffffffffffff16600073ffffffffffffffffffffffffffffffffffffffff167f8be0079c531659141344cd1fd0a4f28419497f9722a3daafe3b4186f6b6457e060405160405180910390a3506200028b565b600033905090565b828054620001849062000226565b90600052602060002090601f016020900481019282620001a85760008555620001f4565b82601f10620001c357805160ff1916838001178555620001f4565b82800160010185558215620001f4579182015b82811115620001f3578251825591602001919060010190620001d6565b5b50905062000203919062000207565b5090565b5b808211156200022257600081600090555060010162000208565b5090565b600060028204905060018216806200023f57607f821691505b602082108114156200025657620002556200025c565b5b50919050565b7f4e487b7100000000000000000000000000000000000000000000000000000000600052602260045260246000fd5b611f89806200029b6000396000f3fe608060405234801561001057600080fd5b50600436106101165760003560e01c806379c65068116100a2578063a9059cbb11610071578063a9059cbb146102d1578063d1df306c14610301578063dd62ed3e1461031d578063ec0c33bb1461034d578063f2fde38b1461036b57610116565b806379c65068146102495780638da5cb5b1461026557806395d89b4114610283578063a457c2d7146102a157610116565b8063313ce567116100e9578063313ce567146101b757806339509351146101d5578063632a9a521461020557806370a082311461020f578063715018a61461023f57610116565b806306fdde031461011b578063095ea7b31461013957806318160ddd1461016957806323b872dd14610187575b600080fd5b610123610387565b60405161013091906117c3565b60405180910390f35b610153600480360381019061014e919061150e565b610419565b604051610160919061178d565b60405180910390f35b610171610437565b60405161017e9190611965565b60405180910390f35b6101a1600480360381019061019c91906114bf565b610441565b6040516101ae919061178d565b60405180910390f35b6101bf610542565b6040516101cc9190611980565b60405180910390f35b6101ef60048036038101906101ea919061150e565b61054b565b6040516101fc919061178d565b60405180910390f35b61020d6105f7565b005b6102296004803603810190610224919061145a565b610611565b6040516102369190611965565b60405180910390f35b610247610659565b005b610263600480360381019061025e919061150e565b610796565b005b61026d610820565b60405161027a9190611772565b60405180910390f35b61028b61084a565b60405161029891906117c3565b60405180910390f35b6102bb60048036038101906102b6919061150e565b6108dc565b6040516102c8919061178d565b60405180910390f35b6102eb60048036038101906102e6919061150e565b6109d0565b6040516102f8919061178d565b60405180910390f35b61031b6004803603810190610316919061150e565b6109ee565b005b61033760048036038101906103329190611483565b610a78565b6040516103449190611965565b60405180910390f35b610355610aff565b60405161036291906117a8565b60405180910390f35b6103856004803603810190610380919061145a565b610b05565b005b60606003805461039690611ad3565b80601f01602080910402602001604051908101604052809291908181526020018280546103c290611ad3565b801561040f5780601f106103e45761010080835404028352916020019161040f565b820191906000526020600020905b8154815290600101906020018083116103f257829003601f168201915b5050505050905090565b600061042d610426610cb1565b8484610cb9565b6001905092915050565b6000600254905090565b600061044e848484610e84565b6000600160008673ffffffffffffffffffffffffffffffffffffffff1673ffffffffffffffffffffffffffffffffffffffff1681526020019081526020016000206000610499610cb1565b73ffffffffffffffffffffffffffffffffffffffff1673ffffffffffffffffffffffffffffffffffffffff16815260200190815260200160002054905082811015610519576040517f08c379a000000000000000000000000000000000000000000000000000000000815260040161051090611885565b60405180910390fd5b61053685610525610cb1565b85846105319190611a0d565b610cb9565b60019150509392505050565b60006012905090565b60006105ed610558610cb1565b848460016000610566610cb1565b73ffffffffffffffffffffffffffffffffffffffff1673ffffffffffffffffffffffffffffffffffffffff16815260200190815260200160002060008873ffffffffffffffffffffffffffffffffffffffff1673ffffffffffffffffffffffffffffffffffffffff168152602001908152602001600020546105e891906119b7565b610cb9565b6001905092915050565b6006600081548092919061060a90611b05565b9190505550565b60008060008373ffffffffffffffffffffffffffffffffffffffff1673ffffffffffffffffffffffffffffffffffffffff168152602001908152602001600020549050919050565b610661610cb1565b73ffffffffffffffffffffffffffffffffffffffff1661067f610820565b73ffffffffffffffffffffffffffffffffffffffff16146106d5576040517f08c379a00000000000000000000000000000000000000000000000000000000081526004016106cc906118a5565b60405180910390fd5b600073ffffffffffffffffffffffffffffffffffffffff16600560009054906101000a900473ffffffffffffffffffffffffffffffffffffffff1673ffffffffffffffffffffffffffffffffffffffff167f8be0079c531659141344cd1fd0a4f28419497f9722a3daafe3b4186f6b6457e060405160405180910390a36000600560006101000a81548173ffffffffffffffffffffffffffffffffffffffff021916908373ffffffffffffffffffffffffffffffffffffffff160217905550565b61079e610cb1565b73ffffffffffffffffffffffffffffffffffffffff166107bc610820565b73ffffffffffffffffffffffffffffffffffffffff1614610812576040517f08c379a0000000000000000000000000000000000000000000000000000000008152600401610809906118a5565b60405180910390fd5b61081c8282611103565b5050565b6000600560009054906101000a900473ffffffffffffffffffffffffffffffffffffffff16905090565b60606004805461085990611ad3565b80601f016020809104026020016040519081016040528092919081815260200182805461088590611ad3565b80156108d25780601f106108a7576101008083540402835291602001916108d2565b820191906000526020600020905b8154815290600101906020018083116108b557829003601f168201915b5050505050905090565b600080600160006108eb610cb1565b73ffffffffffffffffffffffffffffffffffffffff1673ffffffffffffffffffffffffffffffffffffffff16815260200190815260200160002060008573ffffffffffffffffffffffffffffffffffffffff1673ffffffffffffffffffffffffffffffffffffffff168152602001908152602001600020549050828110156109a8576040517f08c379a000000000000000000000000000000000000000000000000000000000815260040161099f90611925565b60405180910390fd5b6109c56109b3610cb1565b8585846109c09190611a0d565b610cb9565b600191505092915050565b60006109e46109dd610cb1565b8484610e84565b6001905092915050565b6109f6610cb1565b73ffffffffffffffffffffffffffffffffffffffff16610a14610820565b73ffffffffffffffffffffffffffffffffffffffff1614610a6a576040517f08c379a0000000000000000000000000000000000000000000000000000000008152600401610a61906118a5565b60405180910390fd5b610a748282611257565b5050565b6000600160008473ffffffffffffffffffffffffffffffffffffffff1673ffffffffffffffffffffffffffffffffffffffff16815260200190815260200160002060008373ffffffffffffffffffffffffffffffffffffffff1673ffffffffffffffffffffffffffffffffffffffff16815260200190815260200160002054905092915050565b60065481565b610b0d610cb1565b73ffffffffffffffffffffffffffffffffffffffff16610b2b610820565b73ffffffffffffffffffffffffffffffffffffffff1614610b81576040517f08c379a0000000000000000000000000000000000000000000000000000000008152600401610b78906118a5565b60405180910390fd5b600073ffffffffffffffffffffffffffffffffffffffff168173ffffffffffffffffffffffffffffffffffffffff161415610bf1576040517f08c379a0000000000000000000000000000000000000000000000000000000008152600401610be890611825565b60405180910390fd5b8073ffffffffffffffffffffffffffffffffffffffff16600560009054906101000a900473ffffffffffffffffffffffffffffffffffffffff1673ffffffffffffffffffffffffffffffffffffffff167f8be0079c531659141344cd1fd0a4f28419497f9722a3daafe3b4186f6b6457e060405160405180910390a380600560006101000a81548173ffffffffffffffffffffffffffffffffffffffff021916908373ffffffffffffffffffffffffffffffffffffffff16021790555050565b600033905090565b600073ffffffffffffffffffffffffffffffffffffffff168373ffffffffffffffffffffffffffffffffffffffff161415610d29576040517f08c379a0000000000000000000000000000000000000000000000000000000008152600401610d2090611905565b60405180910390fd5b600073ffffffffffffffffffffffffffffffffffffffff168273ffffffffffffffffffffffffffffffffffffffff161415610d99576040517f08c379a0000000000000000000000000000000000000000000000000000000008152600401610d9090611845565b60405180910390fd5b80600160008573ffffffffffffffffffffffffffffffffffffffff1673ffffffffffffffffffffffffffffffffffffffff16815260200190815260200160002060008473ffffffffffffffffffffffffffffffffffffffff1673ffffffffffffffffffffffffffffffffffffffff168152602001908152602001600020819055508173ffffffffffffffffffffffffffffffffffffffff168373ffffffffffffffffffffffffffffffffffffffff167f8c5be1e5ebec7d5bd14f71427d1e84f3dd0314c0f7b2291e5b200ac8c7c3b92583604051610e779190611965565b60405180910390a3505050565b600073ffffffffffffffffffffffffffffffffffffffff168373ffffffffffffffffffffffffffffffffffffffff161415610ef4576040517f08c379a0000000000000000000000000000000000000000000000000000000008152600401610eeb906118e5565b60405180910390fd5b600073ffffffffffffffffffffffffffffffffffffffff168273ffffffffffffffffffffffffffffffffffffffff161415610f64576040517f08c379a0000000000000000000000000000000000000000000000000000000008152600401610f5b906117e5565b60405180910390fd5b610f6f83838361142b565b60008060008573ffffffffffffffffffffffffffffffffffffffff1673ffffffffffffffffffffffffffffffffffffffff16815260200190815260200160002054905081811015610ff5576040517f08c379a0000000000000000000000000000000000000000000000000000000008152600401610fec90611865565b60405180910390fd5b81816110019190611a0d565b6000808673ffffffffffffffffffffffffffffffffffffffff1673ffffffffffffffffffffffffffffffffffffffff16815260200190815260200160002081905550816000808573ffffffffffffffffffffffffffffffffffffffff1673ffffffffffffffffffffffffffffffffffffffff168152602001908152602001600020600082825461109191906119b7565b925050819055508273ffffffffffffffffffffffffffffffffffffffff168473ffffffffffffffffffffffffffffffffffffffff167fddf252ad1be2c89b69c2b068fc378daa952ba7f163c4a11628f55a4df523b3ef846040516110f59190611965565b60405180910390a350505050565b600073ffffffffffffffffffffffffffffffffffffffff168273ffffffffffffffffffffffffffffffffffffffff161415611173576040517f08c379a000000000000000000000000000000000000000000000000000000000815260040161116a90611945565b60405180910390fd5b61117f6000838361142b565b806002600082825461119191906119b7565b92505081905550806000808473ffffffffffffffffffffffffffffffffffffffff1673ffffffffffffffffffffffffffffffffffffffff16815260200190815260200160002060008282546111e691906119b7565b925050819055508173ffffffffffffffffffffffffffffffffffffffff16600073ffffffffffffffffffffffffffffffffffffffff167fddf252ad1be2c89b69c2b068fc378daa952ba7f163c4a11628f55a4df523b3ef8360405161124b9190611965565b60405180910390a35050565b600073ffffffffffffffffffffffffffffffffffffffff168273ffffffffffffffffffffffffffffffffffffffff1614156112c7576040517f08c379a00000000000000000000000000000000000000000000000000000000081526004016112be906118c5565b60405180910390fd5b6112d38260008361142b565b60008060008473ffffffffffffffffffffffffffffffffffffffff1673ffffffffffffffffffffffffffffffffffffffff16815260200190815260200160002054905081811015611359576040517f08c379a000000000000000000000000000000000000000000000000000000000815260040161135090611805565b60405180910390fd5b81816113659190611a0d565b6000808573ffffffffffffffffffffffffffffffffffffffff1673ffffffffffffffffffffffffffffffffffffffff1681526020019081526020016000208190555081600260008282546113b99190611a0d565b92505081905550600073ffffffffffffffffffffffffffffffffffffffff168373ffffffffffffffffffffffffffffffffffffffff167fddf252ad1be2c89b69c2b068fc378daa952ba7f163c4a11628f55a4df523b3ef8460405161141e9190611965565b60405180910390a3505050565b505050565b60008135905061143f81611f25565b92915050565b60008135905061145481611f3c565b92915050565b60006020828403121561146c57600080fd5b600061147a84828501611430565b91505092915050565b6000806040838503121561149657600080fd5b60006114a485828601611430565b92505060206114b585828601611430565b9150509250929050565b6000806000606084860312156114d457600080fd5b60006114e286828701611430565b93505060206114f386828701611430565b925050604061150486828701611445565b9150509250925092565b6000806040838503121561152157600080fd5b600061152f85828601611430565b925050602061154085828601611445565b9150509250929050565b61155381611a41565b82525050565b61156281611a53565b82525050565b61157181611a5f565b82525050565b60006115828261199b565b61158c81856119a6565b935061159c818560208601611aa0565b6115a581611bac565b840191505092915050565b60006115bd6023836119a6565b91506115c882611bbd565b604082019050919050565b60006115e06022836119a6565b91506115eb82611c0c565b604082019050919050565b60006116036026836119a6565b915061160e82611c5b565b604082019050919050565b60006116266022836119a6565b915061163182611caa565b604082019050919050565b60006116496026836119a6565b915061165482611cf9565b604082019050919050565b600061166c6028836119a6565b915061167782611d48565b604082019050919050565b600061168f6020836119a6565b915061169a82611d97565b602082019050919050565b60006116b26021836119a6565b91506116bd82611dc0565b604082019050919050565b60006116d56025836119a6565b91506116e082611e0f565b604082019050919050565b60006116f86024836119a6565b915061170382611e5e565b604082019050919050565b600061171b6025836119a6565b915061172682611ead565b604082019050919050565b600061173e601f836119a6565b915061174982611efc565b602082019050919050565b61175d81611a89565b82525050565b61176c81611a93565b82525050565b6000602082019050611787600083018461154a565b92915050565b60006020820190506117a26000830184611559565b92915050565b60006020820190506117bd6000830184611568565b92915050565b600060208201905081810360008301526117dd8184611577565b905092915050565b600060208201905081810360008301526117fe816115b0565b9050919050565b6000602082019050818103600083015261181e816115d3565b9050919050565b6000602082019050818103600083015261183e816115f6565b9050919050565b6000602082019050818103600083015261185e81611619565b9050919050565b6000602082019050818103600083015261187e8161163c565b9050919050565b6000602082019050818103600083015261189e8161165f565b9050919050565b600060208201905081810360008301526118be81611682565b9050919050565b600060208201905081810360008301526118de816116a5565b9050919050565b600060208201905081810360008301526118fe816116c8565b9050919050565b6000602082019050818103600083015261191e816116eb565b9050919050565b6000602082019050818103600083015261193e8161170e565b9050919050565b6000602082019050818103600083015261195e81611731565b9050919050565b600060208201905061197a6000830184611754565b92915050565b60006020820190506119956000830184611763565b92915050565b600081519050919050565b600082825260208201905092915050565b60006119c282611a89565b91506119cd83611a89565b9250827fffffffffffffffffffffffffffffffffffffffffffffffffffffffffffffffff03821115611a0257611a01611b4e565b5b828201905092915050565b6000611a1882611a89565b9150611a2383611a89565b925082821015611a3657611a35611b4e565b5b828203905092915050565b6000611a4c82611a69565b9050919050565b60008115159050919050565b6000819050919050565b600073ffffffffffffffffffffffffffffffffffffffff82169050919050565b6000819050919050565b600060ff82169050919050565b60005b83811015611abe578082015181840152602081019050611aa3565b83811115611acd576000848401525b50505050565b60006002820490506001821680611aeb57607f821691505b60208210811415611aff57611afe611b7d565b5b50919050565b6000611b1082611a5f565b91507f7fffffffffffffffffffffffffffffffffffffffffffffffffffffffffffffff821415611b4357611b42611b4e565b5b600182019050919050565b7f4e487b7100000000000000000000000000000000000000000000000000000000600052601160045260246000fd5b7f4e487b7100000000000000000000000000000000000000000000000000000000600052602260045260246000fd5b6000601f19601f8301169050919050565b7f45524332303a207472616e7366657220746f20746865207a65726f206164647260008201527f6573730000000000000000000000000000000000000000000000000000000000602082015250565b7f45524332303a206275726e20616d6f756e7420657863656564732062616c616e60008201527f6365000000000000000000000000000000000000000000000000000000000000602082015250565b7f4f776e61626c653a206e6577206f776e657220697320746865207a65726f206160008201527f6464726573730000000000000000000000000000000000000000000000000000602082015250565b7f45524332303a20617070726f766520746f20746865207a65726f20616464726560008201527f7373000000000000000000000000000000000000000000000000000000000000602082015250565b7f45524332303a207472616e7366657220616d6f756e742065786365656473206260008201527f616c616e63650000000000000000000000000000000000000000000000000000602082015250565b7f45524332303a207472616e7366657220616d6f756e742065786365656473206160008201527f6c6c6f77616e6365000000000000000000000000000000000000000000000000602082015250565b7f4f776e61626c653a2063616c6c6572206973206e6f7420746865206f776e6572600082015250565b7f45524332303a206275726e2066726f6d20746865207a65726f2061646472657360008201527f7300000000000000000000000000000000000000000000000000000000000000602082015250565b7f45524332303a207472616e736665722066726f6d20746865207a65726f20616460008201527f6472657373000000000000000000000000000000000000000000000000000000602082015250565b7f45524332303a20617070726f76652066726f6d20746865207a65726f2061646460008201527f7265737300000000000000000000000000000000000000000000000000000000602082015250565b7f45524332303a2064656372656173656420616c6c6f77616e63652062656c6f7760008201527f207a65726f000000000000000000000000000000000000000000000000000000602082015250565b7f45524332303a206d696e7420746f20746865207a65726f206164647265737300600082015250565b611f2e81611a41565b8114611f3957600080fd5b50565b611f4581611a89565b8114611f5057600080fd5b5056fea2646970667358221220327d728a5057a6899a68cfa25356c208c935d778bf61a1827529b9c7b3be720e64736f6c63430008040033",
  "immutableReferences": {},
  "source": "// SPDX-License-Identifier: UNLICENSED\n\npragma solidity >=0.8.0;\n\nimport \"@openzeppelin/contracts/token/ERC20/ERC20.sol\";\nimport \"@openzeppelin/contracts/access/Ownable.sol\";\n\ncontract EncodeCoin is ERC20(\"Encode\", \"ENC\"), Ownable {\n    constructor() {}\n\n    int256 public tokenVotes = 0;\n\n    function mintToken(address _recipient, uint256 _amount) public onlyOwner {\n        _mint(_recipient, _amount);\n    }\n\n    function vote() public {\n        tokenVotes++;\n    }\n\n    function burnToken(address _recipient, uint256 _amount) public onlyOwner {\n        _burn(_recipient, _amount);\n    }\n}\n",
  "sourcePath": "/Users/Kirsty/extropy/codeacademy/materials/Week 3 - web3_technologies/Day 1 - web3js/contracts/EncodeCoin.sol",
  "compiler": {
    "name": "solc",
    "version": "0.8.4+commit.c7e474f2.Emscripten.clang"
  },
  "schemaVersion": "3.3.2",
  "updatedAt": "2021-06-09T16:03:10.596Z",
  "networkType": "ethereum",
  "devdoc": {
    "kind": "dev",
    "methods": {
      "allowance(address,address)": {
        "details": "See {IERC20-allowance}."
      },
      "approve(address,uint256)": {
        "details": "See {IERC20-approve}. Requirements: - `spender` cannot be the zero address."
      },
      "balanceOf(address)": {
        "details": "See {IERC20-balanceOf}."
      },
      "decimals()": {
        "details": "Returns the number of decimals used to get its user representation. For example, if `decimals` equals `2`, a balance of `505` tokens should be displayed to a user as `5,05` (`505 / 10 ** 2`). Tokens usually opt for a value of 18, imitating the relationship between Ether and Wei. This is the value {ERC20} uses, unless this function is overridden; NOTE: This information is only used for _display_ purposes: it in no way affects any of the arithmetic of the contract, including {IERC20-balanceOf} and {IERC20-transfer}."
      },
      "decreaseAllowance(address,uint256)": {
        "details": "Atomically decreases the allowance granted to `spender` by the caller. This is an alternative to {approve} that can be used as a mitigation for problems described in {IERC20-approve}. Emits an {Approval} event indicating the updated allowance. Requirements: - `spender` cannot be the zero address. - `spender` must have allowance for the caller of at least `subtractedValue`."
      },
      "increaseAllowance(address,uint256)": {
        "details": "Atomically increases the allowance granted to `spender` by the caller. This is an alternative to {approve} that can be used as a mitigation for problems described in {IERC20-approve}. Emits an {Approval} event indicating the updated allowance. Requirements: - `spender` cannot be the zero address."
      },
      "name()": {
        "details": "Returns the name of the token."
      },
      "owner()": {
        "details": "Returns the address of the current owner."
      },
      "renounceOwnership()": {
        "details": "Leaves the contract without owner. It will not be possible to call `onlyOwner` functions anymore. Can only be called by the current owner. NOTE: Renouncing ownership will leave the contract without an owner, thereby removing any functionality that is only available to the owner."
      },
      "symbol()": {
        "details": "Returns the symbol of the token, usually a shorter version of the name."
      },
      "totalSupply()": {
        "details": "See {IERC20-totalSupply}."
      },
      "transfer(address,uint256)": {
        "details": "See {IERC20-transfer}. Requirements: - `recipient` cannot be the zero address. - the caller must have a balance of at least `amount`."
      },
      "transferFrom(address,address,uint256)": {
        "details": "See {IERC20-transferFrom}. Emits an {Approval} event indicating the updated allowance. This is not required by the EIP. See the note at the beginning of {ERC20}. Requirements: - `sender` and `recipient` cannot be the zero address. - `sender` must have a balance of at least `amount`. - the caller must have allowance for ``sender``'s tokens of at least `amount`."
      },
      "transferOwnership(address)": {
        "details": "Transfers ownership of the contract to a new account (`newOwner`). Can only be called by the current owner."
      }
    },
    "version": 1
  },
  "userdoc": {
    "kind": "user",
    "methods": {},
    "version": 1
  }
}