{
  "contractName": "VolcanoCoin",
  "abi": [
    {
      "inputs": [],
      "stateMutability": "nonpayable",
      "type": "constructor"
    },
    {
      "anonymous": false,
      "inputs": [
        {
          "indexed": true,
          "internalType": "address",
          "name": "owner",
          "type": "address"
        },
        {
          "indexed": true,
          "internalType": "address",
          "name": "spender",
          "type": "address"
        },
        {
          "indexed": false,
          "internalType": "uint256",
          "name": "value",
          "type": "uint256"
        }
      ],
      "name": "Approval",
      "type": "event"
    },
    {
      "anonymous": false,
      "inputs": [
        {
          "indexed": true,
          "internalType": "address",
          "name": "previousOwner",
          "type": "address"
        },
        {
          "indexed": true,
          "internalType": "address",
          "name": "newOwner",
          "type": "address"
        }
      ],
      "name": "OwnershipTransferred",
      "type": "event"
    },
    {
      "anonymous": false,
      "inputs": [
        {
          "indexed": true,
          "internalType": "address",
          "name": "from",
          "type": "address"
        },
        {
          "indexed": true,
          "internalType": "address",
          "name": "to",
          "type": "address"
        },
        {
          "indexed": false,
          "internalType": "uint256",
          "name": "value",
          "type": "uint256"
        }
      ],
      "name": "Transfer",
      "type": "event"
    },
    {
      "anonymous": false,
      "inputs": [
        {
          "indexed": false,
          "internalType": "uint256",
          "name": "",
          "type": "uint256"
        }
      ],
      "name": "tokenSupplyChange",
      "type": "event"
    },
    {
      "inputs": [
        {
          "internalType": "address",
          "name": "owner",
          "type": "address"
        },
        {
          "internalType": "address",
          "name": "spender",
          "type": "address"
        }
      ],
      "name": "allowance",
      "outputs": [
        {
          "internalType": "uint256",
          "name": "",
          "type": "uint256"
        }
      ],
      "stateMutability": "view",
      "type": "function",
      "constant": true
    },
    {
      "inputs": [
        {
          "internalType": "address",
          "name": "spender",
          "type": "address"
        },
        {
          "internalType": "uint256",
          "name": "amount",
          "type": "uint256"
        }
      ],
      "name": "approve",
      "outputs": [
        {
          "internalType": "bool",
          "name": "",
          "type": "bool"
        }
      ],
      "stateMutability": "nonpayable",
      "type": "function"
    },
    {
      "inputs": [
        {
          "internalType": "address",
          "name": "account",
          "type": "address"
        }
      ],
      "name": "balanceOf",
      "outputs": [
        {
          "internalType": "uint256",
          "name": "",
          "type": "uint256"
        }
      ],
      "stateMutability": "view",
      "type": "function",
      "constant": true
    },
    {
      "inputs": [
        {
          "internalType": "address",
          "name": "",
          "type": "address"
        }
      ],
      "name": "balances",
      "outputs": [
        {
          "internalType": "uint256",
          "name": "",
          "type": "uint256"
        }
      ],
      "stateMutability": "view",
      "type": "function",
      "constant": true
    },
    {
      "inputs": [],
      "name": "decimals",
      "outputs": [
        {
          "internalType": "uint8",
          "name": "",
          "type": "uint8"
        }
      ],
      "stateMutability": "view",
      "type": "function",
      "constant": true
    },
    {
      "inputs": [
        {
          "internalType": "address",
          "name": "spender",
          "type": "address"
        },
        {
          "internalType": "uint256",
          "name": "subtractedValue",
          "type": "uint256"
        }
      ],
      "name": "decreaseAllowance",
      "outputs": [
        {
          "internalType": "bool",
          "name": "",
          "type": "bool"
        }
      ],
      "stateMutability": "nonpayable",
      "type": "function"
    },
    {
      "inputs": [
        {
          "internalType": "address",
          "name": "spender",
          "type": "address"
        },
        {
          "internalType": "uint256",
          "name": "addedValue",
          "type": "uint256"
        }
      ],
      "name": "increaseAllowance",
      "outputs": [
        {
          "internalType": "bool",
          "name": "",
          "type": "bool"
        }
      ],
      "stateMutability": "nonpayable",
      "type": "function"
    },
    {
      "inputs": [],
      "name": "name",
      "outputs": [
        {
          "internalType": "string",
          "name": "",
          "type": "string"
        }
      ],
      "stateMutability": "view",
      "type": "function",
      "constant": true
    },
    {
      "inputs": [],
      "name": "owner",
      "outputs": [
        {
          "internalType": "address",
          "name": "",
          "type": "address"
        }
      ],
      "stateMutability": "view",
      "type": "function",
      "constant": true
    },
    {
      "inputs": [
        {
          "internalType": "address",
          "name": "",
          "type": "address"
        },
        {
          "internalType": "uint256",
          "name": "",
          "type": "uint256"
        }
      ],
      "name": "paymentsRecord",
      "outputs": [
        {
          "internalType": "uint256",
          "name": "amount",
          "type": "uint256"
        },
        {
          "internalType": "address",
          "name": "recipient",
          "type": "address"
        }
      ],
      "stateMutability": "view",
      "type": "function",
      "constant": true
    },
    {
      "inputs": [],
      "name": "renounceOwnership",
      "outputs": [],
      "stateMutability": "nonpayable",
      "type": "function"
    },
    {
      "inputs": [],
      "name": "symbol",
      "outputs": [
        {
          "internalType": "string",
          "name": "",
          "type": "string"
        }
      ],
      "stateMutability": "view",
      "type": "function",
      "constant": true
    },
    {
      "inputs": [],
      "name": "totalSupply",
      "outputs": [
        {
          "internalType": "uint256",
          "name": "",
          "type": "uint256"
        }
      ],
      "stateMutability": "view",
      "type": "function",
      "constant": true
    },
    {
      "inputs": [
        {
          "internalType": "address",
          "name": "recipient",
          "type": "address"
        },
        {
          "internalType": "uint256",
          "name": "amount",
          "type": "uint256"
        }
      ],
      "name": "transfer",
      "outputs": [
        {
          "internalType": "bool",
          "name": "",
          "type": "bool"
        }
      ],
      "stateMutability": "nonpayable",
      "type": "function"
    },
    {
      "inputs": [
        {
          "internalType": "address",
          "name": "sender",
          "type": "address"
        },
        {
          "internalType": "address",
          "name": "recipient",
          "type": "address"
        },
        {
          "internalType": "uint256",
          "name": "amount",
          "type": "uint256"
        }
      ],
      "name": "transferFrom",
      "outputs": [
        {
          "internalType": "bool",
          "name": "",
          "type": "bool"
        }
      ],
      "stateMutability": "nonpayable",
      "type": "function"
    },
    {
      "inputs": [
        {
          "internalType": "address",
          "name": "newOwner",
          "type": "address"
        }
      ],
      "name": "transferOwnership",
      "outputs": [],
      "stateMutability": "nonpayable",
      "type": "function"
    },
    {
      "inputs": [],
      "name": "getTokenSupply",
      "outputs": [
        {
          "internalType": "uint256",
          "name": "",
          "type": "uint256"
        }
      ],
      "stateMutability": "view",
      "type": "function",
      "constant": true
    },
    {
      "inputs": [],
      "name": "changeTokenSupply",
      "outputs": [],
      "stateMutability": "nonpayable",
      "type": "function"
    },
    {
      "inputs": [],
      "name": "mintTokens",
      "outputs": [],
      "stateMutability": "nonpayable",
      "type": "function"
    },
    {
      "inputs": [
        {
          "internalType": "address",
          "name": "_recipient",
          "type": "address"
        },
        {
          "internalType": "uint256",
          "name": "_amount",
          "type": "uint256"
        }
      ],
      "name": "makeTransfer",
      "outputs": [],
      "stateMutability": "nonpayable",
      "type": "function"
    }
  ],
  "bytecode": "0x60806040526127106006553480156200001757600080fd5b506040518060400160405280600781526020017f566f6c63616e6f000000000000000000000000000000000000000000000000008152506040518060400160405280600381526020017f564c43000000000000000000000000000000000000000000000000000000000081525081600390805190602001906200009c9291906200034f565b508060049080519060200190620000b59291906200034f565b5050506000620000ca620001dd60201b60201c565b905080600560006101000a81548173ffffffffffffffffffffffffffffffffffffffff021916908373ffffffffffffffffffffffffffffffffffffffff1602179055508073ffffffffffffffffffffffffffffffffffffffff16600073ffffffffffffffffffffffffffffffffffffffff167f8be0079c531659141344cd1fd0a4f28419497f9722a3daafe3b4186f6b6457e060405160405180910390a3506200017d33600654620001e560201b60201c565b600654600760003373ffffffffffffffffffffffffffffffffffffffff1673ffffffffffffffffffffffffffffffffffffffff1681526020019081526020016000206000828254620001d0919062000487565b92505081905550620005ab565b600033905090565b600073ffffffffffffffffffffffffffffffffffffffff168273ffffffffffffffffffffffffffffffffffffffff16141562000258576040517f08c379a00000000000000000000000000000000000000000000000000000000081526004016200024f9062000437565b60405180910390fd5b6200026c600083836200034a60201b60201c565b806002600082825462000280919062000487565b92505081905550806000808473ffffffffffffffffffffffffffffffffffffffff1673ffffffffffffffffffffffffffffffffffffffff1681526020019081526020016000206000828254620002d7919062000487565b925050819055508173ffffffffffffffffffffffffffffffffffffffff16600073ffffffffffffffffffffffffffffffffffffffff167fddf252ad1be2c89b69c2b068fc378daa952ba7f163c4a11628f55a4df523b3ef836040516200033e919062000459565b60405180910390a35050565b505050565b8280546200035d90620004ee565b90600052602060002090601f016020900481019282620003815760008555620003cd565b82601f106200039c57805160ff1916838001178555620003cd565b82800160010185558215620003cd579182015b82811115620003cc578251825591602001919060010190620003af565b5b509050620003dc9190620003e0565b5090565b5b80821115620003fb576000816000905550600101620003e1565b5090565b60006200040e601f8362000476565b91506200041b8262000582565b602082019050919050565b6200043181620004e4565b82525050565b600060208201905081810360008301526200045281620003ff565b9050919050565b600060208201905062000470600083018462000426565b92915050565b600082825260208201905092915050565b60006200049482620004e4565b9150620004a183620004e4565b9250827fffffffffffffffffffffffffffffffffffffffffffffffffffffffffffffffff03821115620004d957620004d862000524565b5b828201905092915050565b6000819050919050565b600060028204905060018216806200050757607f821691505b602082108114156200051e576200051d62000553565b5b50919050565b7f4e487b7100000000000000000000000000000000000000000000000000000000600052601160045260246000fd5b7f4e487b7100000000000000000000000000000000000000000000000000000000600052602260045260246000fd5b7f45524332303a206d696e7420746f20746865207a65726f206164647265737300600082015250565b611e9c80620005bb6000396000f3fe608060405234801561001057600080fd5b506004361061012c5760003560e01c80638da5cb5b116100ad578063ad974f4c11610071578063ad974f4c14610347578063dce4e54114610365578063dd62ed3e14610396578063eeb9635c146103c6578063f2fde38b146103d05761012c565b80638da5cb5b1461028f57806395d89b41146102ad578063a457c2d7146102cb578063a9059cbb146102fb578063abea22cc1461032b5761012c565b806327e235e3116100f457806327e235e3146101d7578063313ce56714610207578063395093511461022557806370a0823114610255578063715018a6146102855761012c565b8063043b7cba1461013157806306fdde031461013b578063095ea7b31461015957806318160ddd1461018957806323b872dd146101a7575b600080fd5b6101396103ec565b005b6101436104ac565b60405161015091906117de565b60405180910390f35b610173600480360381019061016e9190611599565b61053e565b60405161018091906117c3565b60405180910390f35b61019161055c565b60405161019e9190611940565b60405180910390f35b6101c160048036038101906101bc919061154a565b610566565b6040516101ce91906117c3565b60405180910390f35b6101f160048036038101906101ec91906114e5565b610667565b6040516101fe9190611940565b60405180910390f35b61020f61067f565b60405161021c9190611984565b60405180910390f35b61023f600480360381019061023a9190611599565b610688565b60405161024c91906117c3565b60405180910390f35b61026f600480360381019061026a91906114e5565b610734565b60405161027c9190611940565b60405180910390f35b61028d61077c565b005b6102976108b9565b6040516102a491906117a8565b60405180910390f35b6102b56108e3565b6040516102c291906117de565b60405180910390f35b6102e560048036038101906102e09190611599565b610975565b6040516102f291906117c3565b60405180910390f35b61031560048036038101906103109190611599565b610a69565b60405161032291906117c3565b60405180910390f35b61034560048036038101906103409190611599565b610a87565b005b61034f610af7565b60405161035c9190611940565b60405180910390f35b61037f600480360381019061037a9190611599565b610b01565b60405161038d92919061195b565b60405180910390f35b6103b060048036038101906103ab919061150e565b610b62565b6040516103bd9190611940565b60405180910390f35b6103ce610be9565b005b6103ea60048036038101906103e591906114e5565b610c73565b005b6103f4610e1f565b73ffffffffffffffffffffffffffffffffffffffff166104126108b9565b73ffffffffffffffffffffffffffffffffffffffff1614610468576040517f08c379a000000000000000000000000000000000000000000000000000000000815260040161045f906118a0565b60405180910390fd5b61012c6006819055507f67290abf7253b8be66f5bd57625339584b2aba43df89da11c4e8159fc111a1e76006546040516104a29190611940565b60405180910390a1565b6060600380546104bb90611acd565b80601f01602080910402602001604051908101604052809291908181526020018280546104e790611acd565b80156105345780601f1061050957610100808354040283529160200191610534565b820191906000526020600020905b81548152906001019060200180831161051757829003601f168201915b5050505050905090565b600061055261054b610e1f565b8484610e27565b6001905092915050565b6000600254905090565b6000610573848484610ff2565b6000600160008673ffffffffffffffffffffffffffffffffffffffff1673ffffffffffffffffffffffffffffffffffffffff16815260200190815260200160002060006105be610e1f565b73ffffffffffffffffffffffffffffffffffffffff1673ffffffffffffffffffffffffffffffffffffffff1681526020019081526020016000205490508281101561063e576040517f08c379a000000000000000000000000000000000000000000000000000000000815260040161063590611880565b60405180910390fd5b61065b8561064a610e1f565b85846106569190611a11565b610e27565b60019150509392505050565b60076020528060005260406000206000915090505481565b60006012905090565b600061072a610695610e1f565b8484600160006106a3610e1f565b73ffffffffffffffffffffffffffffffffffffffff1673ffffffffffffffffffffffffffffffffffffffff16815260200190815260200160002060008873ffffffffffffffffffffffffffffffffffffffff1673ffffffffffffffffffffffffffffffffffffffff1681526020019081526020016000205461072591906119bb565b610e27565b6001905092915050565b60008060008373ffffffffffffffffffffffffffffffffffffffff1673ffffffffffffffffffffffffffffffffffffffff168152602001908152602001600020549050919050565b610784610e1f565b73ffffffffffffffffffffffffffffffffffffffff166107a26108b9565b73ffffffffffffffffffffffffffffffffffffffff16146107f8576040517f08c379a00000000000000000000000000000000000000000000000000000000081526004016107ef906118a0565b60405180910390fd5b600073ffffffffffffffffffffffffffffffffffffffff16600560009054906101000a900473ffffffffffffffffffffffffffffffffffffffff1673ffffffffffffffffffffffffffffffffffffffff167f8be0079c531659141344cd1fd0a4f28419497f9722a3daafe3b4186f6b6457e060405160405180910390a36000600560006101000a81548173ffffffffffffffffffffffffffffffffffffffff021916908373ffffffffffffffffffffffffffffffffffffffff160217905550565b6000600560009054906101000a900473ffffffffffffffffffffffffffffffffffffffff16905090565b6060600480546108f290611acd565b80601f016020809104026020016040519081016040528092919081815260200182805461091e90611acd565b801561096b5780601f106109405761010080835404028352916020019161096b565b820191906000526020600020905b81548152906001019060200180831161094e57829003601f168201915b5050505050905090565b60008060016000610984610e1f565b73ffffffffffffffffffffffffffffffffffffffff1673ffffffffffffffffffffffffffffffffffffffff16815260200190815260200160002060008573ffffffffffffffffffffffffffffffffffffffff1673ffffffffffffffffffffffffffffffffffffffff16815260200190815260200160002054905082811015610a41576040517f08c379a0000000000000000000000000000000000000000000000000000000008152600401610a3890611900565b60405180910390fd5b610a5e610a4c610e1f565b858584610a599190611a11565b610e27565b600191505092915050565b6000610a7d610a76610e1f565b8484610ff2565b6001905092915050565b610a92338383610ff2565b80600760003373ffffffffffffffffffffffffffffffffffffffff1673ffffffffffffffffffffffffffffffffffffffff1681526020019081526020016000206000828254610ae19190611a11565b92505081905550610af3338383611271565b5050565b6000600654905090565b60086020528160005260406000208181548110610b1d57600080fd5b9060005260206000209060020201600091509150508060000154908060010160009054906101000a900473ffffffffffffffffffffffffffffffffffffffff16905082565b6000600160008473ffffffffffffffffffffffffffffffffffffffff1673ffffffffffffffffffffffffffffffffffffffff16815260200190815260200160002060008373ffffffffffffffffffffffffffffffffffffffff1673ffffffffffffffffffffffffffffffffffffffff16815260200190815260200160002054905092915050565b610bf1610e1f565b73ffffffffffffffffffffffffffffffffffffffff16610c0f6108b9565b73ffffffffffffffffffffffffffffffffffffffff1614610c65576040517f08c379a0000000000000000000000000000000000000000000000000000000008152600401610c5c906118a0565b60405180910390fd5b610c7133600654611362565b565b610c7b610e1f565b73ffffffffffffffffffffffffffffffffffffffff16610c996108b9565b73ffffffffffffffffffffffffffffffffffffffff1614610cef576040517f08c379a0000000000000000000000000000000000000000000000000000000008152600401610ce6906118a0565b60405180910390fd5b600073ffffffffffffffffffffffffffffffffffffffff168173ffffffffffffffffffffffffffffffffffffffff161415610d5f576040517f08c379a0000000000000000000000000000000000000000000000000000000008152600401610d5690611820565b60405180910390fd5b8073ffffffffffffffffffffffffffffffffffffffff16600560009054906101000a900473ffffffffffffffffffffffffffffffffffffffff1673ffffffffffffffffffffffffffffffffffffffff167f8be0079c531659141344cd1fd0a4f28419497f9722a3daafe3b4186f6b6457e060405160405180910390a380600560006101000a81548173ffffffffffffffffffffffffffffffffffffffff021916908373ffffffffffffffffffffffffffffffffffffffff16021790555050565b600033905090565b600073ffffffffffffffffffffffffffffffffffffffff168373ffffffffffffffffffffffffffffffffffffffff161415610e97576040517f08c379a0000000000000000000000000000000000000000000000000000000008152600401610e8e906118e0565b60405180910390fd5b600073ffffffffffffffffffffffffffffffffffffffff168273ffffffffffffffffffffffffffffffffffffffff161415610f07576040517f08c379a0000000000000000000000000000000000000000000000000000000008152600401610efe90611840565b60405180910390fd5b80600160008573ffffffffffffffffffffffffffffffffffffffff1673ffffffffffffffffffffffffffffffffffffffff16815260200190815260200160002060008473ffffffffffffffffffffffffffffffffffffffff1673ffffffffffffffffffffffffffffffffffffffff168152602001908152602001600020819055508173ffffffffffffffffffffffffffffffffffffffff168373ffffffffffffffffffffffffffffffffffffffff167f8c5be1e5ebec7d5bd14f71427d1e84f3dd0314c0f7b2291e5b200ac8c7c3b92583604051610fe59190611940565b60405180910390a3505050565b600073ffffffffffffffffffffffffffffffffffffffff168373ffffffffffffffffffffffffffffffffffffffff161415611062576040517f08c379a0000000000000000000000000000000000000000000000000000000008152600401611059906118c0565b60405180910390fd5b600073ffffffffffffffffffffffffffffffffffffffff168273ffffffffffffffffffffffffffffffffffffffff1614156110d2576040517f08c379a00000000000000000000000000000000000000000000000000000000081526004016110c990611800565b60405180910390fd5b6110dd8383836114b6565b60008060008573ffffffffffffffffffffffffffffffffffffffff1673ffffffffffffffffffffffffffffffffffffffff16815260200190815260200160002054905081811015611163576040517f08c379a000000000000000000000000000000000000000000000000000000000815260040161115a90611860565b60405180910390fd5b818161116f9190611a11565b6000808673ffffffffffffffffffffffffffffffffffffffff1673ffffffffffffffffffffffffffffffffffffffff16815260200190815260200160002081905550816000808573ffffffffffffffffffffffffffffffffffffffff1673ffffffffffffffffffffffffffffffffffffffff16815260200190815260200160002060008282546111ff91906119bb565b925050819055508273ffffffffffffffffffffffffffffffffffffffff168473ffffffffffffffffffffffffffffffffffffffff167fddf252ad1be2c89b69c2b068fc378daa952ba7f163c4a11628f55a4df523b3ef846040516112639190611940565b60405180910390a350505050565b600060405180604001604052808381526020018473ffffffffffffffffffffffffffffffffffffffff168152509050600860008573ffffffffffffffffffffffffffffffffffffffff1673ffffffffffffffffffffffffffffffffffffffff1681526020019081526020016000208190806001815401808255809150506001900390600052602060002090600202016000909190919091506000820151816000015560208201518160010160006101000a81548173ffffffffffffffffffffffffffffffffffffffff021916908373ffffffffffffffffffffffffffffffffffffffff160217905550505050505050565b600073ffffffffffffffffffffffffffffffffffffffff168273ffffffffffffffffffffffffffffffffffffffff1614156113d2576040517f08c379a00000000000000000000000000000000000000000000000000000000081526004016113c990611920565b60405180910390fd5b6113de600083836114b6565b80600260008282546113f091906119bb565b92505081905550806000808473ffffffffffffffffffffffffffffffffffffffff1673ffffffffffffffffffffffffffffffffffffffff168152602001908152602001600020600082825461144591906119bb565b925050819055508173ffffffffffffffffffffffffffffffffffffffff16600073ffffffffffffffffffffffffffffffffffffffff167fddf252ad1be2c89b69c2b068fc378daa952ba7f163c4a11628f55a4df523b3ef836040516114aa9190611940565b60405180910390a35050565b505050565b6000813590506114ca81611e38565b92915050565b6000813590506114df81611e4f565b92915050565b6000602082840312156114f757600080fd5b6000611505848285016114bb565b91505092915050565b6000806040838503121561152157600080fd5b600061152f858286016114bb565b9250506020611540858286016114bb565b9150509250929050565b60008060006060848603121561155f57600080fd5b600061156d868287016114bb565b935050602061157e868287016114bb565b925050604061158f868287016114d0565b9150509250925092565b600080604083850312156115ac57600080fd5b60006115ba858286016114bb565b92505060206115cb858286016114d0565b9150509250929050565b6115de81611a45565b82525050565b6115ed81611a57565b82525050565b60006115fe8261199f565b61160881856119aa565b9350611618818560208601611a9a565b61162181611b5d565b840191505092915050565b60006116396023836119aa565b915061164482611b6e565b604082019050919050565b600061165c6026836119aa565b915061166782611bbd565b604082019050919050565b600061167f6022836119aa565b915061168a82611c0c565b604082019050919050565b60006116a26026836119aa565b91506116ad82611c5b565b604082019050919050565b60006116c56028836119aa565b91506116d082611caa565b604082019050919050565b60006116e86020836119aa565b91506116f382611cf9565b602082019050919050565b600061170b6025836119aa565b915061171682611d22565b604082019050919050565b600061172e6024836119aa565b915061173982611d71565b604082019050919050565b60006117516025836119aa565b915061175c82611dc0565b604082019050919050565b6000611774601f836119aa565b915061177f82611e0f565b602082019050919050565b61179381611a83565b82525050565b6117a281611a8d565b82525050565b60006020820190506117bd60008301846115d5565b92915050565b60006020820190506117d860008301846115e4565b92915050565b600060208201905081810360008301526117f881846115f3565b905092915050565b600060208201905081810360008301526118198161162c565b9050919050565b600060208201905081810360008301526118398161164f565b9050919050565b6000602082019050818103600083015261185981611672565b9050919050565b6000602082019050818103600083015261187981611695565b9050919050565b60006020820190508181036000830152611899816116b8565b9050919050565b600060208201905081810360008301526118b9816116db565b9050919050565b600060208201905081810360008301526118d9816116fe565b9050919050565b600060208201905081810360008301526118f981611721565b9050919050565b6000602082019050818103600083015261191981611744565b9050919050565b6000602082019050818103600083015261193981611767565b9050919050565b6000602082019050611955600083018461178a565b92915050565b6000604082019050611970600083018561178a565b61197d60208301846115d5565b9392505050565b60006020820190506119996000830184611799565b92915050565b600081519050919050565b600082825260208201905092915050565b60006119c682611a83565b91506119d183611a83565b9250827fffffffffffffffffffffffffffffffffffffffffffffffffffffffffffffffff03821115611a0657611a05611aff565b5b828201905092915050565b6000611a1c82611a83565b9150611a2783611a83565b925082821015611a3a57611a39611aff565b5b828203905092915050565b6000611a5082611a63565b9050919050565b60008115159050919050565b600073ffffffffffffffffffffffffffffffffffffffff82169050919050565b6000819050919050565b600060ff82169050919050565b60005b83811015611ab8578082015181840152602081019050611a9d565b83811115611ac7576000848401525b50505050565b60006002820490506001821680611ae557607f821691505b60208210811415611af957611af8611b2e565b5b50919050565b7f4e487b7100000000000000000000000000000000000000000000000000000000600052601160045260246000fd5b7f4e487b7100000000000000000000000000000000000000000000000000000000600052602260045260246000fd5b6000601f19601f8301169050919050565b7f45524332303a207472616e7366657220746f20746865207a65726f206164647260008201527f6573730000000000000000000000000000000000000000000000000000000000602082015250565b7f4f776e61626c653a206e6577206f776e657220697320746865207a65726f206160008201527f6464726573730000000000000000000000000000000000000000000000000000602082015250565b7f45524332303a20617070726f766520746f20746865207a65726f20616464726560008201527f7373000000000000000000000000000000000000000000000000000000000000602082015250565b7f45524332303a207472616e7366657220616d6f756e742065786365656473206260008201527f616c616e63650000000000000000000000000000000000000000000000000000602082015250565b7f45524332303a207472616e7366657220616d6f756e742065786365656473206160008201527f6c6c6f77616e6365000000000000000000000000000000000000000000000000602082015250565b7f4f776e61626c653a2063616c6c6572206973206e6f7420746865206f776e6572600082015250565b7f45524332303a207472616e736665722066726f6d20746865207a65726f20616460008201527f6472657373000000000000000000000000000000000000000000000000000000602082015250565b7f45524332303a20617070726f76652066726f6d20746865207a65726f2061646460008201527f7265737300000000000000000000000000000000000000000000000000000000602082015250565b7f45524332303a2064656372656173656420616c6c6f77616e63652062656c6f7760008201527f207a65726f000000000000000000000000000000000000000000000000000000602082015250565b7f45524332303a206d696e7420746f20746865207a65726f206164647265737300600082015250565b611e4181611a45565b8114611e4c57600080fd5b50565b611e5881611a83565b8114611e6357600080fd5b5056fea2646970667358221220d7e19d145bbb7a239426384e85d61bb90647f2c9e24b456076898e0389caaeaf64736f6c63430008040033",
  "immutableReferences": {},
  "source": "// SPDX-License-Identifier: UNLICENSED\n\npragma solidity ^0.8.0;\n\nimport \"../node_modules/@openzeppelin/contracts/token/ERC20/ERC20.sol\";\nimport \"../node_modules/@openzeppelin/contracts/access/Ownable.sol\";\n\ncontract VolcanoCoin is ERC20(\"Volcano\", \"VLC\"), Ownable {\n    uint256 tokenSupply = 10000;\n    event tokenSupplyChange(uint256);\n    mapping(address => uint256) public balances;\n    mapping(address => Payment[]) public paymentsRecord;\n\n    struct Payment {\n        uint256 amount;\n        address recipient;\n    }\n\n    constructor() {\n        _mint(msg.sender, tokenSupply);\n        balances[msg.sender] += tokenSupply;\n    }\n\n    function getTokenSupply() public view returns (uint256) {\n        return tokenSupply;\n    }\n\n    function changeTokenSupply() public onlyOwner {\n        tokenSupply = 300;\n        emit tokenSupplyChange(tokenSupply);\n    }\n\n    function mintTokens() public onlyOwner {\n        _mint(msg.sender, tokenSupply);\n    }\n\n    function makeTransfer(address _recipient, uint256 _amount) public {\n        _transfer(msg.sender, _recipient, _amount);\n        balances[msg.sender] -= _amount;\n        addPaymentRecord(msg.sender, _recipient, _amount);\n    }\n\n    function addPaymentRecord(\n        address _sender,\n        address _recipient,\n        uint256 _amount\n    ) internal {\n        Payment memory newPayment = Payment(_amount, _recipient);\n        paymentsRecord[_sender].push(newPayment);\n    }\n}\n",
  "sourcePath": "/Users/Kirsty/extropy/codeacademy/materials/Week 3 - web3_technologies/intro to web3/contracts/VolcanoCoin.sol",
  "compiler": {
    "name": "solc",
    "version": "0.8.4+commit.c7e474f2.Emscripten.clang"
  },
  "schemaVersion": "3.3.2",
  "updatedAt": "2021-07-13T14:24:48.704Z",
  "networkType": "ethereum",
  "devdoc": {
    "kind": "dev",
    "methods": {
      "allowance(address,address)": {
        "details": "See {IERC20-allowance}."
      },
      "approve(address,uint256)": {
        "details": "See {IERC20-approve}. Requirements: - `spender` cannot be the zero address."
      },
      "balanceOf(address)": {
        "details": "See {IERC20-balanceOf}."
      },
      "decimals()": {
        "details": "Returns the number of decimals used to get its user representation. For example, if `decimals` equals `2`, a balance of `505` tokens should be displayed to a user as `5,05` (`505 / 10 ** 2`). Tokens usually opt for a value of 18, imitating the relationship between Ether and Wei. This is the value {ERC20} uses, unless this function is overridden; NOTE: This information is only used for _display_ purposes: it in no way affects any of the arithmetic of the contract, including {IERC20-balanceOf} and {IERC20-transfer}."
      },
      "decreaseAllowance(address,uint256)": {
        "details": "Atomically decreases the allowance granted to `spender` by the caller. This is an alternative to {approve} that can be used as a mitigation for problems described in {IERC20-approve}. Emits an {Approval} event indicating the updated allowance. Requirements: - `spender` cannot be the zero address. - `spender` must have allowance for the caller of at least `subtractedValue`."
      },
      "increaseAllowance(address,uint256)": {
        "details": "Atomically increases the allowance granted to `spender` by the caller. This is an alternative to {approve} that can be used as a mitigation for problems described in {IERC20-approve}. Emits an {Approval} event indicating the updated allowance. Requirements: - `spender` cannot be the zero address."
      },
      "name()": {
        "details": "Returns the name of the token."
      },
      "owner()": {
        "details": "Returns the address of the current owner."
      },
      "renounceOwnership()": {
        "details": "Leaves the contract without owner. It will not be possible to call `onlyOwner` functions anymore. Can only be called by the current owner. NOTE: Renouncing ownership will leave the contract without an owner, thereby removing any functionality that is only available to the owner."
      },
      "symbol()": {
        "details": "Returns the symbol of the token, usually a shorter version of the name."
      },
      "totalSupply()": {
        "details": "See {IERC20-totalSupply}."
      },
      "transfer(address,uint256)": {
        "details": "See {IERC20-transfer}. Requirements: - `recipient` cannot be the zero address. - the caller must have a balance of at least `amount`."
      },
      "transferFrom(address,address,uint256)": {
        "details": "See {IERC20-transferFrom}. Emits an {Approval} event indicating the updated allowance. This is not required by the EIP. See the note at the beginning of {ERC20}. Requirements: - `sender` and `recipient` cannot be the zero address. - `sender` must have a balance of at least `amount`. - the caller must have allowance for ``sender``'s tokens of at least `amount`."
      },
      "transferOwnership(address)": {
        "details": "Transfers ownership of the contract to a new account (`newOwner`). Can only be called by the current owner."
      }
    },
    "version": 1
  },
  "userdoc": {
    "kind": "user",
    "methods": {},
    "version": 1
  }
}